{
  "_format": "hh-sol-artifact-1",
  "contractName": "Punks",
  "sourceName": "contracts/Punk.sol",
  "abi": [
    {
      "inputs": [],
      "stateMutability": "nonpayable",
      "type": "constructor"
    },
    {
      "anonymous": false,
      "inputs": [
        {
          "indexed": true,
          "internalType": "address",
          "name": "owner",
          "type": "address"
        },
        {
          "indexed": true,
          "internalType": "address",
          "name": "approved",
          "type": "address"
        },
        {
          "indexed": true,
          "internalType": "uint256",
          "name": "tokenId",
          "type": "uint256"
        }
      ],
      "name": "Approval",
      "type": "event"
    },
    {
      "anonymous": false,
      "inputs": [
        {
          "indexed": true,
          "internalType": "address",
          "name": "owner",
          "type": "address"
        },
        {
          "indexed": true,
          "internalType": "address",
          "name": "operator",
          "type": "address"
        },
        {
          "indexed": false,
          "internalType": "bool",
          "name": "approved",
          "type": "bool"
        }
      ],
      "name": "ApprovalForAll",
      "type": "event"
    },
    {
      "anonymous": false,
      "inputs": [
        {
          "indexed": true,
          "internalType": "address",
          "name": "previousOwner",
          "type": "address"
        },
        {
          "indexed": true,
          "internalType": "address",
          "name": "newOwner",
          "type": "address"
        }
      ],
      "name": "OwnershipTransferred",
      "type": "event"
    },
    {
      "anonymous": false,
      "inputs": [
        {
          "indexed": true,
          "internalType": "bytes32",
          "name": "role",
          "type": "bytes32"
        },
        {
          "indexed": true,
          "internalType": "bytes32",
          "name": "previousAdminRole",
          "type": "bytes32"
        },
        {
          "indexed": true,
          "internalType": "bytes32",
          "name": "newAdminRole",
          "type": "bytes32"
        }
      ],
      "name": "RoleAdminChanged",
      "type": "event"
    },
    {
      "anonymous": false,
      "inputs": [
        {
          "indexed": true,
          "internalType": "bytes32",
          "name": "role",
          "type": "bytes32"
        },
        {
          "indexed": true,
          "internalType": "address",
          "name": "account",
          "type": "address"
        },
        {
          "indexed": true,
          "internalType": "address",
          "name": "sender",
          "type": "address"
        }
      ],
      "name": "RoleGranted",
      "type": "event"
    },
    {
      "anonymous": false,
      "inputs": [
        {
          "indexed": true,
          "internalType": "bytes32",
          "name": "role",
          "type": "bytes32"
        },
        {
          "indexed": true,
          "internalType": "address",
          "name": "account",
          "type": "address"
        },
        {
          "indexed": true,
          "internalType": "address",
          "name": "sender",
          "type": "address"
        }
      ],
      "name": "RoleRevoked",
      "type": "event"
    },
    {
      "anonymous": false,
      "inputs": [
        {
          "indexed": true,
          "internalType": "address",
          "name": "from",
          "type": "address"
        },
        {
          "indexed": true,
          "internalType": "address",
          "name": "to",
          "type": "address"
        },
        {
          "indexed": true,
          "internalType": "uint256",
          "name": "tokenId",
          "type": "uint256"
        }
      ],
      "name": "Transfer",
      "type": "event"
    },
    {
      "stateMutability": "payable",
      "type": "fallback"
    },
    {
      "inputs": [],
      "name": "ADMIN_ROLE",
      "outputs": [
        {
          "internalType": "bytes32",
          "name": "",
          "type": "bytes32"
        }
      ],
      "stateMutability": "view",
      "type": "function"
    },
    {
      "inputs": [],
      "name": "BASE_URI",
      "outputs": [
        {
          "internalType": "string",
          "name": "",
          "type": "string"
        }
      ],
      "stateMutability": "view",
      "type": "function"
    },
    {
      "inputs": [],
      "name": "DEFAULT_ADMIN_ROLE",
      "outputs": [
        {
          "internalType": "bytes32",
          "name": "",
          "type": "bytes32"
        }
      ],
      "stateMutability": "view",
      "type": "function"
    },
    {
      "inputs": [],
      "name": "MAX_TOKENS_AMOUNT",
      "outputs": [
        {
          "internalType": "uint256",
          "name": "",
          "type": "uint256"
        }
      ],
      "stateMutability": "view",
      "type": "function"
    },
    {
      "inputs": [],
      "name": "TOKEN_PRICE",
      "outputs": [
        {
          "internalType": "uint256",
          "name": "",
          "type": "uint256"
        }
      ],
      "stateMutability": "view",
      "type": "function"
    },
    {
      "inputs": [
        {
          "internalType": "address",
          "name": "to",
          "type": "address"
        },
        {
          "internalType": "uint256",
          "name": "tokenId",
          "type": "uint256"
        }
      ],
      "name": "approve",
      "outputs": [],
      "stateMutability": "nonpayable",
      "type": "function"
    },
    {
      "inputs": [],
      "name": "artist",
      "outputs": [
        {
          "internalType": "address",
          "name": "",
          "type": "address"
        }
      ],
      "stateMutability": "view",
      "type": "function"
    },
    {
      "inputs": [
        {
          "internalType": "address",
          "name": "owner",
          "type": "address"
        }
      ],
      "name": "balanceOf",
      "outputs": [
        {
          "internalType": "uint256",
          "name": "",
          "type": "uint256"
        }
      ],
      "stateMutability": "view",
      "type": "function"
    },
    {
      "inputs": [
        {
          "internalType": "uint256",
          "name": "tokenId",
          "type": "uint256"
        }
      ],
      "name": "getApproved",
      "outputs": [
        {
          "internalType": "address",
          "name": "",
          "type": "address"
        }
      ],
      "stateMutability": "view",
      "type": "function"
    },
    {
      "inputs": [
        {
          "internalType": "bytes32",
          "name": "role",
          "type": "bytes32"
        }
      ],
      "name": "getRoleAdmin",
      "outputs": [
        {
          "internalType": "bytes32",
          "name": "",
          "type": "bytes32"
        }
      ],
      "stateMutability": "view",
      "type": "function"
    },
    {
      "inputs": [
        {
          "internalType": "bytes32",
          "name": "role",
          "type": "bytes32"
        },
        {
          "internalType": "address",
          "name": "account",
          "type": "address"
        }
      ],
      "name": "grantRole",
      "outputs": [],
      "stateMutability": "nonpayable",
      "type": "function"
    },
    {
      "inputs": [
        {
          "internalType": "bytes32",
          "name": "role",
          "type": "bytes32"
        },
        {
          "internalType": "address",
          "name": "account",
          "type": "address"
        }
      ],
      "name": "hasRole",
      "outputs": [
        {
          "internalType": "bool",
          "name": "",
          "type": "bool"
        }
      ],
      "stateMutability": "view",
      "type": "function"
    },
    {
      "inputs": [
        {
          "internalType": "address",
          "name": "owner",
          "type": "address"
        },
        {
          "internalType": "address",
          "name": "operator",
          "type": "address"
        }
      ],
      "name": "isApprovedForAll",
      "outputs": [
        {
          "internalType": "bool",
          "name": "",
          "type": "bool"
        }
      ],
      "stateMutability": "view",
      "type": "function"
    },
    {
      "inputs": [],
      "name": "name",
      "outputs": [
        {
          "internalType": "string",
          "name": "",
          "type": "string"
        }
      ],
      "stateMutability": "view",
      "type": "function"
    },
    {
      "inputs": [],
      "name": "openSale",
      "outputs": [
        {
          "internalType": "bool",
          "name": "",
          "type": "bool"
        }
      ],
      "stateMutability": "view",
      "type": "function"
    },
    {
      "inputs": [],
      "name": "owner",
      "outputs": [
        {
          "internalType": "address",
          "name": "",
          "type": "address"
        }
      ],
      "stateMutability": "view",
      "type": "function"
    },
    {
      "inputs": [
        {
          "internalType": "uint256",
          "name": "tokenId",
          "type": "uint256"
        }
      ],
      "name": "ownerOf",
      "outputs": [
        {
          "internalType": "address",
          "name": "",
          "type": "address"
        }
      ],
      "stateMutability": "view",
      "type": "function"
    },
    {
      "inputs": [],
      "name": "renounceOwnership",
      "outputs": [],
      "stateMutability": "nonpayable",
      "type": "function"
    },
    {
      "inputs": [
        {
          "internalType": "bytes32",
          "name": "role",
          "type": "bytes32"
        },
        {
          "internalType": "address",
          "name": "account",
          "type": "address"
        }
      ],
      "name": "renounceRole",
      "outputs": [],
      "stateMutability": "nonpayable",
      "type": "function"
    },
    {
      "inputs": [
        {
          "internalType": "bytes32",
          "name": "role",
          "type": "bytes32"
        },
        {
          "internalType": "address",
          "name": "account",
          "type": "address"
        }
      ],
      "name": "revokeRole",
      "outputs": [],
      "stateMutability": "nonpayable",
      "type": "function"
    },
    {
      "inputs": [
        {
          "internalType": "address",
          "name": "from",
          "type": "address"
        },
        {
          "internalType": "address",
          "name": "to",
          "type": "address"
        },
        {
          "internalType": "uint256",
          "name": "tokenId",
          "type": "uint256"
        }
      ],
      "name": "safeTransferFrom",
      "outputs": [],
      "stateMutability": "nonpayable",
      "type": "function"
    },
    {
      "inputs": [
        {
          "internalType": "address",
          "name": "from",
          "type": "address"
        },
        {
          "internalType": "address",
          "name": "to",
          "type": "address"
        },
        {
          "internalType": "uint256",
          "name": "tokenId",
          "type": "uint256"
        },
        {
          "internalType": "bytes",
          "name": "_data",
          "type": "bytes"
        }
      ],
      "name": "safeTransferFrom",
      "outputs": [],
      "stateMutability": "nonpayable",
      "type": "function"
    },
    {
      "inputs": [
        {
          "internalType": "address",
          "name": "operator",
          "type": "address"
        },
        {
          "internalType": "bool",
          "name": "approved",
          "type": "bool"
        }
      ],
      "name": "setApprovalForAll",
      "outputs": [],
      "stateMutability": "nonpayable",
      "type": "function"
    },
    {
      "inputs": [
        {
          "internalType": "string",
          "name": "baseURI",
          "type": "string"
        }
      ],
      "name": "setBaseURI",
      "outputs": [],
      "stateMutability": "nonpayable",
      "type": "function"
    },
    {
      "inputs": [
        {
          "internalType": "bytes4",
          "name": "interfaceId",
          "type": "bytes4"
        }
      ],
      "name": "supportsInterface",
      "outputs": [
        {
          "internalType": "bool",
          "name": "",
          "type": "bool"
        }
      ],
      "stateMutability": "view",
      "type": "function"
    },
    {
      "inputs": [],
      "name": "symbol",
      "outputs": [
        {
          "internalType": "string",
          "name": "",
          "type": "string"
        }
      ],
      "stateMutability": "view",
      "type": "function"
    },
    {
      "inputs": [],
      "name": "toggleSaleOff",
      "outputs": [],
      "stateMutability": "nonpayable",
      "type": "function"
    },
    {
      "inputs": [],
      "name": "toggleSaleOn",
      "outputs": [],
      "stateMutability": "nonpayable",
      "type": "function"
    },
    {
      "inputs": [
        {
          "internalType": "uint256",
          "name": "index",
          "type": "uint256"
        }
      ],
      "name": "tokenByIndex",
      "outputs": [
        {
          "internalType": "uint256",
          "name": "",
          "type": "uint256"
        }
      ],
      "stateMutability": "view",
      "type": "function"
    },
    {
      "inputs": [],
      "name": "tokenMint",
      "outputs": [],
      "stateMutability": "payable",
      "type": "function"
    },
    {
      "inputs": [
        {
          "internalType": "address",
          "name": "owner",
          "type": "address"
        },
        {
          "internalType": "uint256",
          "name": "index",
          "type": "uint256"
        }
      ],
      "name": "tokenOfOwnerByIndex",
      "outputs": [
        {
          "internalType": "uint256",
          "name": "",
          "type": "uint256"
        }
      ],
      "stateMutability": "view",
      "type": "function"
    },
    {
      "inputs": [
        {
          "internalType": "uint256",
          "name": "tokenId",
          "type": "uint256"
        }
      ],
      "name": "tokenURI",
      "outputs": [
        {
          "internalType": "string",
          "name": "",
          "type": "string"
        }
      ],
      "stateMutability": "view",
      "type": "function"
    },
    {
      "inputs": [],
      "name": "totalSupply",
      "outputs": [
        {
          "internalType": "uint256",
          "name": "",
          "type": "uint256"
        }
      ],
      "stateMutability": "view",
      "type": "function"
    },
    {
      "inputs": [
        {
          "internalType": "address",
          "name": "from",
          "type": "address"
        },
        {
          "internalType": "address",
          "name": "to",
          "type": "address"
        },
        {
          "internalType": "uint256",
          "name": "tokenId",
          "type": "uint256"
        }
      ],
      "name": "transferFrom",
      "outputs": [],
      "stateMutability": "nonpayable",
      "type": "function"
    },
    {
      "inputs": [
        {
          "internalType": "address",
          "name": "newOwner",
          "type": "address"
        }
      ],
      "name": "transferOwnership",
      "outputs": [],
      "stateMutability": "nonpayable",
      "type": "function"
    },
    {
      "inputs": [],
      "name": "withdrawFunds",
      "outputs": [],
      "stateMutability": "nonpayable",
      "type": "function"
    },
    {
      "stateMutability": "payable",
      "type": "receive"
    }
  ],
  "bytecode": "0x60a06040526064600c55662386f26fc10000600d5560405180606001604052806035815260200162004f0360359139600e908051906020019062000045929190620003df565b506000600f60006101000a81548160ff0219169083151502179055503480156200006e57600080fd5b506040518060400160405280600481526020017f50756e6b000000000000000000000000000000000000000000000000000000008152506040518060400160405280600281526020017f50500000000000000000000000000000000000000000000000000000000000008152508160009080519060200190620000f3929190620003df565b5080600190805190602001906200010c929190620003df565b5050506200012f620001236200019e60201b60201c565b620001a660201b60201c565b620001617fa49807205ce4d355092ef5a8a18f56e8913cf4a201fbe287825b095693c21775336200026c60201b60201c565b3373ffffffffffffffffffffffffffffffffffffffff1660808173ffffffffffffffffffffffffffffffffffffffff1660601b81525050620004f4565b600033905090565b6000600b60009054906101000a900473ffffffffffffffffffffffffffffffffffffffff16905081600b60006101000a81548173ffffffffffffffffffffffffffffffffffffffff021916908373ffffffffffffffffffffffffffffffffffffffff1602179055508173ffffffffffffffffffffffffffffffffffffffff168173ffffffffffffffffffffffffffffffffffffffff167f8be0079c531659141344cd1fd0a4f28419497f9722a3daafe3b4186f6b6457e060405160405180910390a35050565b6200027e82826200028260201b60201c565b5050565b6200029482826200037460201b60201c565b62000370576001600a600084815260200190815260200160002060000160008373ffffffffffffffffffffffffffffffffffffffff1673ffffffffffffffffffffffffffffffffffffffff16815260200190815260200160002060006101000a81548160ff021916908315150217905550620003156200019e60201b60201c565b73ffffffffffffffffffffffffffffffffffffffff168173ffffffffffffffffffffffffffffffffffffffff16837f2f8788117e7eff1d82e926ec794901d17c78024a50270940304540a733656f0d60405160405180910390a45b5050565b6000600a600084815260200190815260200160002060000160008373ffffffffffffffffffffffffffffffffffffffff1673ffffffffffffffffffffffffffffffffffffffff16815260200190815260200160002060009054906101000a900460ff16905092915050565b828054620003ed906200048f565b90600052602060002090601f0160209004810192826200041157600085556200045d565b82601f106200042c57805160ff19168380011785556200045d565b828001600101855582156200045d579182015b828111156200045c5782518255916020019190600101906200043f565b5b5090506200046c919062000470565b5090565b5b808211156200048b57600081600090555060010162000471565b5090565b60006002820490506001821680620004a857607f821691505b60208210811415620004bf57620004be620004c5565b5b50919050565b7f4e487b7100000000000000000000000000000000000000000000000000000000600052602260045260246000fd5b60805160601c6149e96200051a60003960008181610c320152610e9001526149e96000f3fe6080604052600436106102135760003560e01c806370a0823111610118578063af25c077116100a0578063d2d8cb671161006f578063d2d8cb671461077c578063d547741f146107a7578063dbddb26a146107d0578063e985e9c5146107fb578063f2fde38b1461083857610224565b8063af25c077146106f5578063b88d4fde146106ff578063bb6d44b714610728578063c87b56dd1461073f57610224565b80638fccf5be116100e75780638fccf5be1461060e57806391d148541461063957806395d89b4114610676578063a217fddf146106a1578063a22cb465146106cc57610224565b806370a0823114610564578063715018a6146105a157806375b238fc146105b85780638da5cb5b146105e357610224565b80632f2ff15d1161019b57806343bc16121161016a57806343bc16121461047f5780634ca9d7d6146104aa5780634f6ccce7146104c157806355f804b3146104fe5780636352211e1461052757610224565b80632f2ff15d146103c75780632f745c59146103f057806336568abe1461042d57806342842e0e1461045657610224565b8063167ff46f116101e2578063167ff46f146102f457806318160ddd1461031f57806323b872dd1461034a57806324600fc314610373578063248a9ca31461038a57610224565b806301ffc9a71461022657806306fdde0314610263578063081812fc1461028e578063095ea7b3146102cb57610224565b36610224576102223433610861565b005b005b34801561023257600080fd5b5061024d60048036038101906102489190613450565b61096d565b60405161025a9190613a76565b60405180910390f35b34801561026f57600080fd5b5061027861097f565b6040516102859190613aac565b60405180910390f35b34801561029a57600080fd5b506102b560048036038101906102b091906134e3565b610a11565b6040516102c29190613a0f565b60405180910390f35b3480156102d757600080fd5b506102f260048036038101906102ed91906133af565b610a96565b005b34801561030057600080fd5b50610309610bae565b6040516103169190613a76565b60405180910390f35b34801561032b57600080fd5b50610334610bc1565b6040516103419190613dce565b60405180910390f35b34801561035657600080fd5b50610371600480360381019061036c91906132a9565b610bce565b005b34801561037f57600080fd5b50610388610c2e565b005b34801561039657600080fd5b506103b160048036038101906103ac91906133eb565b610cfd565b6040516103be9190613a91565b60405180910390f35b3480156103d357600080fd5b506103ee60048036038101906103e99190613414565b610d1d565b005b3480156103fc57600080fd5b50610417600480360381019061041291906133af565b610d46565b6040516104249190613dce565b60405180910390f35b34801561043957600080fd5b50610454600480360381019061044f9190613414565b610deb565b005b34801561046257600080fd5b5061047d600480360381019061047891906132a9565b610e6e565b005b34801561048b57600080fd5b50610494610e8e565b6040516104a19190613a0f565b60405180910390f35b3480156104b657600080fd5b506104bf610eb2565b005b3480156104cd57600080fd5b506104e860048036038101906104e391906134e3565b610f02565b6040516104f59190613dce565b60405180910390f35b34801561050a57600080fd5b50610525600480360381019061052091906134a2565b610f99565b005b34801561053357600080fd5b5061054e600480360381019061054991906134e3565b610fe6565b60405161055b9190613a0f565b60405180910390f35b34801561057057600080fd5b5061058b60048036038101906105869190613244565b611098565b6040516105989190613dce565b60405180910390f35b3480156105ad57600080fd5b506105b6611150565b005b3480156105c457600080fd5b506105cd6111d8565b6040516105da9190613a91565b60405180910390f35b3480156105ef57600080fd5b506105f86111fc565b6040516106059190613a0f565b60405180910390f35b34801561061a57600080fd5b50610623611226565b6040516106309190613dce565b60405180910390f35b34801561064557600080fd5b50610660600480360381019061065b9190613414565b61122c565b60405161066d9190613a76565b60405180910390f35b34801561068257600080fd5b5061068b611297565b6040516106989190613aac565b60405180910390f35b3480156106ad57600080fd5b506106b6611329565b6040516106c39190613a91565b60405180910390f35b3480156106d857600080fd5b506106f360048036038101906106ee9190613373565b611330565b005b6106fd6114b1565b005b34801561070b57600080fd5b50610726600480360381019061072191906132f8565b6114bd565b005b34801561073457600080fd5b5061073d61151f565b005b34801561074b57600080fd5b50610766600480360381019061076191906134e3565b61156f565b6040516107739190613aac565b60405180910390f35b34801561078857600080fd5b50610791611616565b60405161079e9190613dce565b60405180910390f35b3480156107b357600080fd5b506107ce60048036038101906107c99190613414565b61161c565b005b3480156107dc57600080fd5b506107e5611645565b6040516107f29190613aac565b60405180910390f35b34801561080757600080fd5b50610822600480360381019061081d919061326d565b6116d3565b60405161082f9190613a76565b60405180910390f35b34801561084457600080fd5b5061085f600480360381019061085a9190613244565b611767565b005b600f60009054906101000a900460ff166108b0576040517f08c379a00000000000000000000000000000000000000000000000000000000081526004016108a790613d4e565b60405180910390fd5b600d5482146108f4576040517f08c379a00000000000000000000000000000000000000000000000000000000081526004016108eb90613c6e565b60405180910390fd5b600c546001610901610bc1565b61090b9190613ebe565b111561094c576040517f08c379a000000000000000000000000000000000000000000000000000000000815260040161094390613c0e565b60405180910390fd5b61096981600161095a610bc1565b6109649190613ebe565b61185f565b5050565b60006109788261187d565b9050919050565b60606000805461098e906140bd565b80601f01602080910402602001604051908101604052809291908181526020018280546109ba906140bd565b8015610a075780601f106109dc57610100808354040283529160200191610a07565b820191906000526020600020905b8154815290600101906020018083116109ea57829003601f168201915b5050505050905090565b6000610a1c826118f7565b610a5b576040517f08c379a0000000000000000000000000000000000000000000000000000000008152600401610a5290613cae565b60405180910390fd5b6004600083815260200190815260200160002060009054906101000a900473ffffffffffffffffffffffffffffffffffffffff169050919050565b6000610aa182610fe6565b90508073ffffffffffffffffffffffffffffffffffffffff168373ffffffffffffffffffffffffffffffffffffffff161415610b12576040517f08c379a0000000000000000000000000000000000000000000000000000000008152600401610b0990613d2e565b60405180910390fd5b8073ffffffffffffffffffffffffffffffffffffffff16610b31611963565b73ffffffffffffffffffffffffffffffffffffffff161480610b605750610b5f81610b5a611963565b6116d3565b5b610b9f576040517f08c379a0000000000000000000000000000000000000000000000000000000008152600401610b9690613bee565b60405180910390fd5b610ba9838361196b565b505050565b600f60009054906101000a900460ff1681565b6000600880549050905090565b610bdf610bd9611963565b82611a24565b610c1e576040517f08c379a0000000000000000000000000000000000000000000000000000000008152600401610c1590613d6e565b60405180910390fd5b610c29838383611b02565b505050565b60007f000000000000000000000000000000000000000000000000000000000000000073ffffffffffffffffffffffffffffffffffffffff1647604051610c74906139c0565b60006040518083038185875af1925050503d8060008114610cb1576040519150601f19603f3d011682016040523d82523d6000602084013e610cb6565b606091505b5050905080610cfa576040517f08c379a0000000000000000000000000000000000000000000000000000000008152600401610cf190613b4e565b60405180910390fd5b50565b6000600a6000838152602001908152602001600020600101549050919050565b610d2682610cfd565b610d3781610d32611963565b611d5e565b610d418383611dfb565b505050565b6000610d5183611098565b8210610d92576040517f08c379a0000000000000000000000000000000000000000000000000000000008152600401610d8990613aee565b60405180910390fd5b600660008473ffffffffffffffffffffffffffffffffffffffff1673ffffffffffffffffffffffffffffffffffffffff168152602001908152602001600020600083815260200190815260200160002054905092915050565b610df3611963565b73ffffffffffffffffffffffffffffffffffffffff168173ffffffffffffffffffffffffffffffffffffffff1614610e60576040517f08c379a0000000000000000000000000000000000000000000000000000000008152600401610e5790613dae565b60405180910390fd5b610e6a8282611edc565b5050565b610e89838383604051806020016040528060008152506114bd565b505050565b7f000000000000000000000000000000000000000000000000000000000000000081565b7fa49807205ce4d355092ef5a8a18f56e8913cf4a201fbe287825b095693c21775610ee481610edf611963565b611d5e565b6000600f60006101000a81548160ff02191690831515021790555050565b6000610f0c610bc1565b8210610f4d576040517f08c379a0000000000000000000000000000000000000000000000000000000008152600401610f4490613d8e565b60405180910390fd5b60088281548110610f87577f4e487b7100000000000000000000000000000000000000000000000000000000600052603260045260246000fd5b90600052602060002001549050919050565b7fa49807205ce4d355092ef5a8a18f56e8913cf4a201fbe287825b095693c21775610fcb81610fc6611963565b611d5e565b81600e9080519060200190610fe1929190613053565b505050565b6000806002600084815260200190815260200160002060009054906101000a900473ffffffffffffffffffffffffffffffffffffffff169050600073ffffffffffffffffffffffffffffffffffffffff168173ffffffffffffffffffffffffffffffffffffffff16141561108f576040517f08c379a000000000000000000000000000000000000000000000000000000000815260040161108690613c4e565b60405180910390fd5b80915050919050565b60008073ffffffffffffffffffffffffffffffffffffffff168273ffffffffffffffffffffffffffffffffffffffff161415611109576040517f08c379a000000000000000000000000000000000000000000000000000000000815260040161110090613c2e565b60405180910390fd5b600360008373ffffffffffffffffffffffffffffffffffffffff1673ffffffffffffffffffffffffffffffffffffffff168152602001908152602001600020549050919050565b611158611963565b73ffffffffffffffffffffffffffffffffffffffff166111766111fc565b73ffffffffffffffffffffffffffffffffffffffff16146111cc576040517f08c379a00000000000000000000000000000000000000000000000000000000081526004016111c390613cce565b60405180910390fd5b6111d66000611fbe565b565b7fa49807205ce4d355092ef5a8a18f56e8913cf4a201fbe287825b095693c2177581565b6000600b60009054906101000a900473ffffffffffffffffffffffffffffffffffffffff16905090565b600c5481565b6000600a600084815260200190815260200160002060000160008373ffffffffffffffffffffffffffffffffffffffff1673ffffffffffffffffffffffffffffffffffffffff16815260200190815260200160002060009054906101000a900460ff16905092915050565b6060600180546112a6906140bd565b80601f01602080910402602001604051908101604052809291908181526020018280546112d2906140bd565b801561131f5780601f106112f45761010080835404028352916020019161131f565b820191906000526020600020905b81548152906001019060200180831161130257829003601f168201915b5050505050905090565b6000801b81565b611338611963565b73ffffffffffffffffffffffffffffffffffffffff168273ffffffffffffffffffffffffffffffffffffffff1614156113a6576040517f08c379a000000000000000000000000000000000000000000000000000000000815260040161139d90613bae565b60405180910390fd5b80600560006113b3611963565b73ffffffffffffffffffffffffffffffffffffffff1673ffffffffffffffffffffffffffffffffffffffff16815260200190815260200160002060008473ffffffffffffffffffffffffffffffffffffffff1673ffffffffffffffffffffffffffffffffffffffff16815260200190815260200160002060006101000a81548160ff0219169083151502179055508173ffffffffffffffffffffffffffffffffffffffff16611460611963565b73ffffffffffffffffffffffffffffffffffffffff167f17307eab39ab6107e8899845ad3d59bd9653f200f220920489ca2b5937696c31836040516114a59190613a76565b60405180910390a35050565b6114bb3433610861565b565b6114ce6114c8611963565b83611a24565b61150d576040517f08c379a000000000000000000000000000000000000000000000000000000000815260040161150490613d6e565b60405180910390fd5b61151984848484612084565b50505050565b7fa49807205ce4d355092ef5a8a18f56e8913cf4a201fbe287825b095693c217756115518161154c611963565b611d5e565b6001600f60006101000a81548160ff02191690831515021790555050565b606061157a826118f7565b6115b9576040517f08c379a00000000000000000000000000000000000000000000000000000000081526004016115b090613d0e565b60405180910390fd5b60006115c36120e0565b905060008151116115e3576040518060200160405280600081525061160e565b806115ed84612172565b6040516020016115fe92919061399c565b6040516020818303038152906040525b915050919050565b600d5481565b61162582610cfd565b61163681611631611963565b611d5e565b6116408383611edc565b505050565b600e8054611652906140bd565b80601f016020809104026020016040519081016040528092919081815260200182805461167e906140bd565b80156116cb5780601f106116a0576101008083540402835291602001916116cb565b820191906000526020600020905b8154815290600101906020018083116116ae57829003601f168201915b505050505081565b6000600560008473ffffffffffffffffffffffffffffffffffffffff1673ffffffffffffffffffffffffffffffffffffffff16815260200190815260200160002060008373ffffffffffffffffffffffffffffffffffffffff1673ffffffffffffffffffffffffffffffffffffffff16815260200190815260200160002060009054906101000a900460ff16905092915050565b61176f611963565b73ffffffffffffffffffffffffffffffffffffffff1661178d6111fc565b73ffffffffffffffffffffffffffffffffffffffff16146117e3576040517f08c379a00000000000000000000000000000000000000000000000000000000081526004016117da90613cce565b60405180910390fd5b600073ffffffffffffffffffffffffffffffffffffffff168173ffffffffffffffffffffffffffffffffffffffff161415611853576040517f08c379a000000000000000000000000000000000000000000000000000000000815260040161184a90613b2e565b60405180910390fd5b61185c81611fbe565b50565b61187982826040518060200160405280600081525061231f565b5050565b60007f7965db0b000000000000000000000000000000000000000000000000000000007bffffffffffffffffffffffffffffffffffffffffffffffffffffffff1916827bffffffffffffffffffffffffffffffffffffffffffffffffffffffff191614806118f057506118ef8261237a565b5b9050919050565b60008073ffffffffffffffffffffffffffffffffffffffff166002600084815260200190815260200160002060009054906101000a900473ffffffffffffffffffffffffffffffffffffffff1673ffffffffffffffffffffffffffffffffffffffff1614159050919050565b600033905090565b816004600083815260200190815260200160002060006101000a81548173ffffffffffffffffffffffffffffffffffffffff021916908373ffffffffffffffffffffffffffffffffffffffff160217905550808273ffffffffffffffffffffffffffffffffffffffff166119de83610fe6565b73ffffffffffffffffffffffffffffffffffffffff167f8c5be1e5ebec7d5bd14f71427d1e84f3dd0314c0f7b2291e5b200ac8c7c3b92560405160405180910390a45050565b6000611a2f826118f7565b611a6e576040517f08c379a0000000000000000000000000000000000000000000000000000000008152600401611a6590613bce565b60405180910390fd5b6000611a7983610fe6565b90508073ffffffffffffffffffffffffffffffffffffffff168473ffffffffffffffffffffffffffffffffffffffff161480611ae857508373ffffffffffffffffffffffffffffffffffffffff16611ad084610a11565b73ffffffffffffffffffffffffffffffffffffffff16145b80611af95750611af881856116d3565b5b91505092915050565b8273ffffffffffffffffffffffffffffffffffffffff16611b2282610fe6565b73ffffffffffffffffffffffffffffffffffffffff1614611b78576040517f08c379a0000000000000000000000000000000000000000000000000000000008152600401611b6f90613cee565b60405180910390fd5b600073ffffffffffffffffffffffffffffffffffffffff168273ffffffffffffffffffffffffffffffffffffffff161415611be8576040517f08c379a0000000000000000000000000000000000000000000000000000000008152600401611bdf90613b8e565b60405180910390fd5b611bf38383836123f4565b611bfe60008261196b565b6001600360008573ffffffffffffffffffffffffffffffffffffffff1673ffffffffffffffffffffffffffffffffffffffff1681526020019081526020016000206000828254611c4e9190613f9f565b925050819055506001600360008473ffffffffffffffffffffffffffffffffffffffff1673ffffffffffffffffffffffffffffffffffffffff1681526020019081526020016000206000828254611ca59190613ebe565b92505081905550816002600083815260200190815260200160002060006101000a81548173ffffffffffffffffffffffffffffffffffffffff021916908373ffffffffffffffffffffffffffffffffffffffff160217905550808273ffffffffffffffffffffffffffffffffffffffff168473ffffffffffffffffffffffffffffffffffffffff167fddf252ad1be2c89b69c2b068fc378daa952ba7f163c4a11628f55a4df523b3ef60405160405180910390a4505050565b611d68828261122c565b611df757611d8d8173ffffffffffffffffffffffffffffffffffffffff166014612404565b611d9b8360001c6020612404565b604051602001611dac9291906139d5565b6040516020818303038152906040526040517f08c379a0000000000000000000000000000000000000000000000000000000008152600401611dee9190613aac565b60405180910390fd5b5050565b611e05828261122c565b611ed8576001600a600084815260200190815260200160002060000160008373ffffffffffffffffffffffffffffffffffffffff1673ffffffffffffffffffffffffffffffffffffffff16815260200190815260200160002060006101000a81548160ff021916908315150217905550611e7d611963565b73ffffffffffffffffffffffffffffffffffffffff168173ffffffffffffffffffffffffffffffffffffffff16837f2f8788117e7eff1d82e926ec794901d17c78024a50270940304540a733656f0d60405160405180910390a45b5050565b611ee6828261122c565b15611fba576000600a600084815260200190815260200160002060000160008373ffffffffffffffffffffffffffffffffffffffff1673ffffffffffffffffffffffffffffffffffffffff16815260200190815260200160002060006101000a81548160ff021916908315150217905550611f5f611963565b73ffffffffffffffffffffffffffffffffffffffff168173ffffffffffffffffffffffffffffffffffffffff16837ff6391f5c32d9c69d2a47ea670b442974b53935d1edc7fd64eb21e047a839171b60405160405180910390a45b5050565b6000600b60009054906101000a900473ffffffffffffffffffffffffffffffffffffffff16905081600b60006101000a81548173ffffffffffffffffffffffffffffffffffffffff021916908373ffffffffffffffffffffffffffffffffffffffff1602179055508173ffffffffffffffffffffffffffffffffffffffff168173ffffffffffffffffffffffffffffffffffffffff167f8be0079c531659141344cd1fd0a4f28419497f9722a3daafe3b4186f6b6457e060405160405180910390a35050565b61208f848484611b02565b61209b848484846126fe565b6120da576040517f08c379a00000000000000000000000000000000000000000000000000000000081526004016120d190613b0e565b60405180910390fd5b50505050565b6060600e80546120ef906140bd565b80601f016020809104026020016040519081016040528092919081815260200182805461211b906140bd565b80156121685780601f1061213d57610100808354040283529160200191612168565b820191906000526020600020905b81548152906001019060200180831161214b57829003601f168201915b5050505050905090565b606060008214156121ba576040518060400160405280600181526020017f3000000000000000000000000000000000000000000000000000000000000000815250905061231a565b600082905060005b600082146121ec5780806121d590614120565b915050600a826121e59190613f14565b91506121c2565b60008167ffffffffffffffff81111561222e577f4e487b7100000000000000000000000000000000000000000000000000000000600052604160045260246000fd5b6040519080825280601f01601f1916602001820160405280156122605781602001600182028036833780820191505090505b5090505b60008514612313576001826122799190613f9f565b9150600a856122889190614169565b60306122949190613ebe565b60f81b8183815181106122d0577f4e487b7100000000000000000000000000000000000000000000000000000000600052603260045260246000fd5b60200101907effffffffffffffffffffffffffffffffffffffffffffffffffffffffffffff1916908160001a905350600a8561230c9190613f14565b9450612264565b8093505050505b919050565b6123298383612895565b61233660008484846126fe565b612375576040517f08c379a000000000000000000000000000000000000000000000000000000000815260040161236c90613b0e565b60405180910390fd5b505050565b60007f780e9d63000000000000000000000000000000000000000000000000000000007bffffffffffffffffffffffffffffffffffffffffffffffffffffffff1916827bffffffffffffffffffffffffffffffffffffffffffffffffffffffff191614806123ed57506123ec82612a63565b5b9050919050565b6123ff838383612b45565b505050565b6060600060028360026124179190613f45565b6124219190613ebe565b67ffffffffffffffff811115612460577f4e487b7100000000000000000000000000000000000000000000000000000000600052604160045260246000fd5b6040519080825280601f01601f1916602001820160405280156124925781602001600182028036833780820191505090505b5090507f3000000000000000000000000000000000000000000000000000000000000000816000815181106124f0577f4e487b7100000000000000000000000000000000000000000000000000000000600052603260045260246000fd5b60200101907effffffffffffffffffffffffffffffffffffffffffffffffffffffffffffff1916908160001a9053507f78000000000000000000000000000000000000000000000000000000000000008160018151811061257a577f4e487b7100000000000000000000000000000000000000000000000000000000600052603260045260246000fd5b60200101907effffffffffffffffffffffffffffffffffffffffffffffffffffffffffffff1916908160001a905350600060018460026125ba9190613f45565b6125c49190613ebe565b90505b60018111156126b0577f3031323334353637383961626364656600000000000000000000000000000000600f86166010811061262c577f4e487b7100000000000000000000000000000000000000000000000000000000600052603260045260246000fd5b1a60f81b828281518110612669577f4e487b7100000000000000000000000000000000000000000000000000000000600052603260045260246000fd5b60200101907effffffffffffffffffffffffffffffffffffffffffffffffffffffffffffff1916908160001a905350600485901c9450806126a990614093565b90506125c7565b50600084146126f4576040517f08c379a00000000000000000000000000000000000000000000000000000000081526004016126eb90613ace565b60405180910390fd5b8091505092915050565b600061271f8473ffffffffffffffffffffffffffffffffffffffff16612c59565b15612888578373ffffffffffffffffffffffffffffffffffffffff1663150b7a02612748611963565b8786866040518563ffffffff1660e01b815260040161276a9493929190613a2a565b602060405180830381600087803b15801561278457600080fd5b505af19250505080156127b557506040513d601f19601f820116820180604052508101906127b29190613479565b60015b612838573d80600081146127e5576040519150601f19603f3d011682016040523d82523d6000602084013e6127ea565b606091505b50600081511415612830576040517f08c379a000000000000000000000000000000000000000000000000000000000815260040161282790613b0e565b60405180910390fd5b805181602001fd5b63150b7a0260e01b7bffffffffffffffffffffffffffffffffffffffffffffffffffffffff1916817bffffffffffffffffffffffffffffffffffffffffffffffffffffffff19161491505061288d565b600190505b949350505050565b600073ffffffffffffffffffffffffffffffffffffffff168273ffffffffffffffffffffffffffffffffffffffff161415612905576040517f08c379a00000000000000000000000000000000000000000000000000000000081526004016128fc90613c8e565b60405180910390fd5b61290e816118f7565b1561294e576040517f08c379a000000000000000000000000000000000000000000000000000000000815260040161294590613b6e565b60405180910390fd5b61295a600083836123f4565b6001600360008473ffffffffffffffffffffffffffffffffffffffff1673ffffffffffffffffffffffffffffffffffffffff16815260200190815260200160002060008282546129aa9190613ebe565b92505081905550816002600083815260200190815260200160002060006101000a81548173ffffffffffffffffffffffffffffffffffffffff021916908373ffffffffffffffffffffffffffffffffffffffff160217905550808273ffffffffffffffffffffffffffffffffffffffff16600073ffffffffffffffffffffffffffffffffffffffff167fddf252ad1be2c89b69c2b068fc378daa952ba7f163c4a11628f55a4df523b3ef60405160405180910390a45050565b60007f80ac58cd000000000000000000000000000000000000000000000000000000007bffffffffffffffffffffffffffffffffffffffffffffffffffffffff1916827bffffffffffffffffffffffffffffffffffffffffffffffffffffffff19161480612b2e57507f5b5e139f000000000000000000000000000000000000000000000000000000007bffffffffffffffffffffffffffffffffffffffffffffffffffffffff1916827bffffffffffffffffffffffffffffffffffffffffffffffffffffffff1916145b80612b3e5750612b3d82612c6c565b5b9050919050565b612b50838383612cd6565b600073ffffffffffffffffffffffffffffffffffffffff168373ffffffffffffffffffffffffffffffffffffffff161415612b9357612b8e81612cdb565b612bd2565b8173ffffffffffffffffffffffffffffffffffffffff168373ffffffffffffffffffffffffffffffffffffffff1614612bd157612bd08382612d24565b5b5b600073ffffffffffffffffffffffffffffffffffffffff168273ffffffffffffffffffffffffffffffffffffffff161415612c1557612c1081612e91565b612c54565b8273ffffffffffffffffffffffffffffffffffffffff168273ffffffffffffffffffffffffffffffffffffffff1614612c5357612c528282612fd4565b5b5b505050565b600080823b905060008111915050919050565b60007f01ffc9a7000000000000000000000000000000000000000000000000000000007bffffffffffffffffffffffffffffffffffffffffffffffffffffffff1916827bffffffffffffffffffffffffffffffffffffffffffffffffffffffff1916149050919050565b505050565b6008805490506009600083815260200190815260200160002081905550600881908060018154018082558091505060019003906000526020600020016000909190919091505550565b60006001612d3184611098565b612d3b9190613f9f565b9050600060076000848152602001908152602001600020549050818114612e20576000600660008673ffffffffffffffffffffffffffffffffffffffff1673ffffffffffffffffffffffffffffffffffffffff168152602001908152602001600020600084815260200190815260200160002054905080600660008773ffffffffffffffffffffffffffffffffffffffff1673ffffffffffffffffffffffffffffffffffffffff168152602001908152602001600020600084815260200190815260200160002081905550816007600083815260200190815260200160002081905550505b6007600084815260200190815260200160002060009055600660008573ffffffffffffffffffffffffffffffffffffffff1673ffffffffffffffffffffffffffffffffffffffff16815260200190815260200160002060008381526020019081526020016000206000905550505050565b60006001600880549050612ea59190613f9f565b9050600060096000848152602001908152602001600020549050600060088381548110612efb577f4e487b7100000000000000000000000000000000000000000000000000000000600052603260045260246000fd5b906000526020600020015490508060088381548110612f43577f4e487b7100000000000000000000000000000000000000000000000000000000600052603260045260246000fd5b906000526020600020018190555081600960008381526020019081526020016000208190555060096000858152602001908152602001600020600090556008805480612fb8577f4e487b7100000000000000000000000000000000000000000000000000000000600052603160045260246000fd5b6001900381819060005260206000200160009055905550505050565b6000612fdf83611098565b905081600660008573ffffffffffffffffffffffffffffffffffffffff1673ffffffffffffffffffffffffffffffffffffffff168152602001908152602001600020600083815260200190815260200160002081905550806007600084815260200190815260200160002081905550505050565b82805461305f906140bd565b90600052602060002090601f01602090048101928261308157600085556130c8565b82601f1061309a57805160ff19168380011785556130c8565b828001600101855582156130c8579182015b828111156130c75782518255916020019190600101906130ac565b5b5090506130d591906130d9565b5090565b5b808211156130f25760008160009055506001016130da565b5090565b600061310961310484613e0e565b613de9565b90508281526020810184848401111561312157600080fd5b61312c848285614051565b509392505050565b600061314761314284613e3f565b613de9565b90508281526020810184848401111561315f57600080fd5b61316a848285614051565b509392505050565b60008135905061318181614940565b92915050565b60008135905061319681614957565b92915050565b6000813590506131ab8161496e565b92915050565b6000813590506131c081614985565b92915050565b6000815190506131d581614985565b92915050565b600082601f8301126131ec57600080fd5b81356131fc8482602086016130f6565b91505092915050565b600082601f83011261321657600080fd5b8135613226848260208601613134565b91505092915050565b60008135905061323e8161499c565b92915050565b60006020828403121561325657600080fd5b600061326484828501613172565b91505092915050565b6000806040838503121561328057600080fd5b600061328e85828601613172565b925050602061329f85828601613172565b9150509250929050565b6000806000606084860312156132be57600080fd5b60006132cc86828701613172565b93505060206132dd86828701613172565b92505060406132ee8682870161322f565b9150509250925092565b6000806000806080858703121561330e57600080fd5b600061331c87828801613172565b945050602061332d87828801613172565b935050604061333e8782880161322f565b925050606085013567ffffffffffffffff81111561335b57600080fd5b613367878288016131db565b91505092959194509250565b6000806040838503121561338657600080fd5b600061339485828601613172565b92505060206133a585828601613187565b9150509250929050565b600080604083850312156133c257600080fd5b60006133d085828601613172565b92505060206133e18582860161322f565b9150509250929050565b6000602082840312156133fd57600080fd5b600061340b8482850161319c565b91505092915050565b6000806040838503121561342757600080fd5b60006134358582860161319c565b925050602061344685828601613172565b9150509250929050565b60006020828403121561346257600080fd5b6000613470848285016131b1565b91505092915050565b60006020828403121561348b57600080fd5b6000613499848285016131c6565b91505092915050565b6000602082840312156134b457600080fd5b600082013567ffffffffffffffff8111156134ce57600080fd5b6134da84828501613205565b91505092915050565b6000602082840312156134f557600080fd5b60006135038482850161322f565b91505092915050565b61351581613fd3565b82525050565b61352481613fe5565b82525050565b61353381613ff1565b82525050565b600061354482613e70565b61354e8185613e86565b935061355e818560208601614060565b61356781614256565b840191505092915050565b600061357d82613e7b565b6135878185613ea2565b9350613597818560208601614060565b6135a081614256565b840191505092915050565b60006135b682613e7b565b6135c08185613eb3565b93506135d0818560208601614060565b80840191505092915050565b60006135e9602083613ea2565b91506135f482614267565b602082019050919050565b600061360c602b83613ea2565b915061361782614290565b604082019050919050565b600061362f603283613ea2565b915061363a826142df565b604082019050919050565b6000613652602683613ea2565b915061365d8261432e565b604082019050919050565b6000613675602a83613ea2565b91506136808261437d565b604082019050919050565b6000613698601c83613ea2565b91506136a3826143cc565b602082019050919050565b60006136bb602483613ea2565b91506136c6826143f5565b604082019050919050565b60006136de601983613ea2565b91506136e982614444565b602082019050919050565b6000613701602c83613ea2565b915061370c8261446d565b604082019050919050565b6000613724603883613ea2565b915061372f826144bc565b604082019050919050565b6000613747602f83613ea2565b91506137528261450b565b604082019050919050565b600061376a602a83613ea2565b91506137758261455a565b604082019050919050565b600061378d602983613ea2565b9150613798826145a9565b604082019050919050565b60006137b0603983613ea2565b91506137bb826145f8565b604082019050919050565b60006137d3602083613ea2565b91506137de82614647565b602082019050919050565b60006137f6602c83613ea2565b915061380182614670565b604082019050919050565b6000613819602083613ea2565b9150613824826146bf565b602082019050919050565b600061383c602983613ea2565b9150613847826146e8565b604082019050919050565b600061385f602f83613ea2565b915061386a82614737565b604082019050919050565b6000613882602183613ea2565b915061388d82614786565b604082019050919050565b60006138a5601583613ea2565b91506138b0826147d5565b602082019050919050565b60006138c8600083613e97565b91506138d3826147fe565b600082019050919050565b60006138eb603183613ea2565b91506138f682614801565b604082019050919050565b600061390e602c83613ea2565b915061391982614850565b604082019050919050565b6000613931601783613eb3565b915061393c8261489f565b601782019050919050565b6000613954601183613eb3565b915061395f826148c8565b601182019050919050565b6000613977602f83613ea2565b9150613982826148f1565b604082019050919050565b61399681614047565b82525050565b60006139a882856135ab565b91506139b482846135ab565b91508190509392505050565b60006139cb826138bb565b9150819050919050565b60006139e082613924565b91506139ec82856135ab565b91506139f782613947565b9150613a0382846135ab565b91508190509392505050565b6000602082019050613a24600083018461350c565b92915050565b6000608082019050613a3f600083018761350c565b613a4c602083018661350c565b613a59604083018561398d565b8181036060830152613a6b8184613539565b905095945050505050565b6000602082019050613a8b600083018461351b565b92915050565b6000602082019050613aa6600083018461352a565b92915050565b60006020820190508181036000830152613ac68184613572565b905092915050565b60006020820190508181036000830152613ae7816135dc565b9050919050565b60006020820190508181036000830152613b07816135ff565b9050919050565b60006020820190508181036000830152613b2781613622565b9050919050565b60006020820190508181036000830152613b4781613645565b9050919050565b60006020820190508181036000830152613b6781613668565b9050919050565b60006020820190508181036000830152613b878161368b565b9050919050565b60006020820190508181036000830152613ba7816136ae565b9050919050565b60006020820190508181036000830152613bc7816136d1565b9050919050565b60006020820190508181036000830152613be7816136f4565b9050919050565b60006020820190508181036000830152613c0781613717565b9050919050565b60006020820190508181036000830152613c278161373a565b9050919050565b60006020820190508181036000830152613c478161375d565b9050919050565b60006020820190508181036000830152613c6781613780565b9050919050565b60006020820190508181036000830152613c87816137a3565b9050919050565b60006020820190508181036000830152613ca7816137c6565b9050919050565b60006020820190508181036000830152613cc7816137e9565b9050919050565b60006020820190508181036000830152613ce78161380c565b9050919050565b60006020820190508181036000830152613d078161382f565b9050919050565b60006020820190508181036000830152613d2781613852565b9050919050565b60006020820190508181036000830152613d4781613875565b9050919050565b60006020820190508181036000830152613d6781613898565b9050919050565b60006020820190508181036000830152613d87816138de565b9050919050565b60006020820190508181036000830152613da781613901565b9050919050565b60006020820190508181036000830152613dc78161396a565b9050919050565b6000602082019050613de3600083018461398d565b92915050565b6000613df3613e04565b9050613dff82826140ef565b919050565b6000604051905090565b600067ffffffffffffffff821115613e2957613e28614227565b5b613e3282614256565b9050602081019050919050565b600067ffffffffffffffff821115613e5a57613e59614227565b5b613e6382614256565b9050602081019050919050565b600081519050919050565b600081519050919050565b600082825260208201905092915050565b600081905092915050565b600082825260208201905092915050565b600081905092915050565b6000613ec982614047565b9150613ed483614047565b9250827fffffffffffffffffffffffffffffffffffffffffffffffffffffffffffffffff03821115613f0957613f0861419a565b5b828201905092915050565b6000613f1f82614047565b9150613f2a83614047565b925082613f3a57613f396141c9565b5b828204905092915050565b6000613f5082614047565b9150613f5b83614047565b9250817fffffffffffffffffffffffffffffffffffffffffffffffffffffffffffffffff0483118215151615613f9457613f9361419a565b5b828202905092915050565b6000613faa82614047565b9150613fb583614047565b925082821015613fc857613fc761419a565b5b828203905092915050565b6000613fde82614027565b9050919050565b60008115159050919050565b6000819050919050565b60007fffffffff0000000000000000000000000000000000000000000000000000000082169050919050565b600073ffffffffffffffffffffffffffffffffffffffff82169050919050565b6000819050919050565b82818337600083830152505050565b60005b8381101561407e578082015181840152602081019050614063565b8381111561408d576000848401525b50505050565b600061409e82614047565b915060008214156140b2576140b161419a565b5b600182039050919050565b600060028204905060018216806140d557607f821691505b602082108114156140e9576140e86141f8565b5b50919050565b6140f882614256565b810181811067ffffffffffffffff8211171561411757614116614227565b5b80604052505050565b600061412b82614047565b91507fffffffffffffffffffffffffffffffffffffffffffffffffffffffffffffffff82141561415e5761415d61419a565b5b600182019050919050565b600061417482614047565b915061417f83614047565b92508261418f5761418e6141c9565b5b828206905092915050565b7f4e487b7100000000000000000000000000000000000000000000000000000000600052601160045260246000fd5b7f4e487b7100000000000000000000000000000000000000000000000000000000600052601260045260246000fd5b7f4e487b7100000000000000000000000000000000000000000000000000000000600052602260045260246000fd5b7f4e487b7100000000000000000000000000000000000000000000000000000000600052604160045260246000fd5b6000601f19601f8301169050919050565b7f537472696e67733a20686578206c656e67746820696e73756666696369656e74600082015250565b7f455243373231456e756d657261626c653a206f776e657220696e646578206f7560008201527f74206f6620626f756e6473000000000000000000000000000000000000000000602082015250565b7f4552433732313a207472616e7366657220746f206e6f6e20455243373231526560008201527f63656976657220696d706c656d656e7465720000000000000000000000000000602082015250565b7f4f776e61626c653a206e6577206f776e657220697320746865207a65726f206160008201527f6464726573730000000000000000000000000000000000000000000000000000602082015250565b7f50756e6b733a20776974686472617746756e64733a3a205472616e736163746960008201527f6f6e204661696c65642100000000000000000000000000000000000000000000602082015250565b7f4552433732313a20746f6b656e20616c7265616479206d696e74656400000000600082015250565b7f4552433732313a207472616e7366657220746f20746865207a65726f2061646460008201527f7265737300000000000000000000000000000000000000000000000000000000602082015250565b7f4552433732313a20617070726f766520746f2063616c6c657200000000000000600082015250565b7f4552433732313a206f70657261746f7220717565727920666f72206e6f6e657860008201527f697374656e7420746f6b656e0000000000000000000000000000000000000000602082015250565b7f4552433732313a20617070726f76652063616c6c6572206973206e6f74206f7760008201527f6e6572206e6f7220617070726f76656420666f7220616c6c0000000000000000602082015250565b7f50756e6b733a20736166654d696e743a3a20457863656564696e6720746f746160008201527f6c20737570706c79206c696d6974210000000000000000000000000000000000602082015250565b7f4552433732313a2062616c616e636520717565727920666f7220746865207a6560008201527f726f206164647265737300000000000000000000000000000000000000000000602082015250565b7f4552433732313a206f776e657220717565727920666f72206e6f6e657869737460008201527f656e7420746f6b656e0000000000000000000000000000000000000000000000602082015250565b7f50756e6b733a20736166654d696e743a3a20506c656173652073656e6420746860008201527f6520726967687420616d6f756e74206f6620746f6b656e732100000000000000602082015250565b7f4552433732313a206d696e7420746f20746865207a65726f2061646472657373600082015250565b7f4552433732313a20617070726f76656420717565727920666f72206e6f6e657860008201527f697374656e7420746f6b656e0000000000000000000000000000000000000000602082015250565b7f4f776e61626c653a2063616c6c6572206973206e6f7420746865206f776e6572600082015250565b7f4552433732313a207472616e73666572206f6620746f6b656e2074686174206960008201527f73206e6f74206f776e0000000000000000000000000000000000000000000000602082015250565b7f4552433732314d657461646174613a2055524920717565727920666f72206e6f60008201527f6e6578697374656e7420746f6b656e0000000000000000000000000000000000602082015250565b7f4552433732313a20617070726f76616c20746f2063757272656e74206f776e6560008201527f7200000000000000000000000000000000000000000000000000000000000000602082015250565b7f50756e6b3a2053616c6520697320636c6f736564210000000000000000000000600082015250565b50565b7f4552433732313a207472616e736665722063616c6c6572206973206e6f74206f60008201527f776e6572206e6f7220617070726f766564000000000000000000000000000000602082015250565b7f455243373231456e756d657261626c653a20676c6f62616c20696e646578206f60008201527f7574206f6620626f756e64730000000000000000000000000000000000000000602082015250565b7f416363657373436f6e74726f6c3a206163636f756e7420000000000000000000600082015250565b7f206973206d697373696e6720726f6c6520000000000000000000000000000000600082015250565b7f416363657373436f6e74726f6c3a2063616e206f6e6c792072656e6f756e636560008201527f20726f6c657320666f722073656c660000000000000000000000000000000000602082015250565b61494981613fd3565b811461495457600080fd5b50565b61496081613fe5565b811461496b57600080fd5b50565b61497781613ff1565b811461498257600080fd5b50565b61498e81613ffb565b811461499957600080fd5b50565b6149a581614047565b81146149b057600080fd5b5056fea26469706673582212202e02aafddf40656f2376d916dca60a774397ca45f0f3742b7929f53cd784775f64736f6c6343000804003368747470733a2f2f656e69676d617469632d6d6f756e7461696e2d35393531382e6865726f6b756170702e636f6d2f746f6b656e2f",
  "linkReferences": {},
  "deployedLinkReferences": {}
}